{
  "_format": "hh-sol-artifact-1",
  "contractName": "BookingFactory",
  "sourceName": "contracts/BookingFactory.sol",
  "abi": [
    {
      "inputs": [],
      "stateMutability": "nonpayable",
      "type": "constructor"
    },
    {
      "anonymous": false,
      "inputs": [
        {
          "indexed": true,
          "internalType": "uint256",
          "name": "bookingId",
          "type": "uint256"
        }
      ],
      "name": "BookingCreated",
      "type": "event"
    },
    {
      "inputs": [
        {
          "internalType": "uint256",
          "name": "_bookingNumber",
          "type": "uint256"
        },
        {
          "internalType": "address",
          "name": "_model",
          "type": "address"
        },
        {
          "internalType": "uint256",
          "name": "_deposit",
          "type": "uint256"
        }
      ],
      "name": "addModel",
      "outputs": [],
      "stateMutability": "payable",
      "type": "function"
    },
    {
      "inputs": [
        {
          "internalType": "uint256",
          "name": "_bookingNumber",
          "type": "uint256"
        },
        {
          "internalType": "address",
          "name": "_model",
          "type": "address"
        }
      ],
      "name": "approveRefundForNoShow",
      "outputs": [],
      "stateMutability": "payable",
      "type": "function"
    },
    {
      "inputs": [],
      "name": "bookingId",
      "outputs": [
        {
          "internalType": "uint256",
          "name": "_value",
          "type": "uint256"
        }
      ],
      "stateMutability": "view",
      "type": "function"
    },
    {
      "inputs": [
        {
          "internalType": "uint256",
          "name": "_bookingNumber",
          "type": "uint256"
        },
        {
          "internalType": "address payable[]",
          "name": "_models",
          "type": "address[]"
        }
      ],
      "name": "cancelBooking",
      "outputs": [],
      "stateMutability": "payable",
      "type": "function"
    },
    {
      "inputs": [
        {
          "internalType": "uint256",
          "name": "_bookingNumber",
          "type": "uint256"
        }
      ],
      "name": "checkForDeposists",
      "outputs": [
        {
          "internalType": "uint256",
          "name": "deposit",
          "type": "uint256"
        },
        {
          "internalType": "address",
          "name": "model",
          "type": "address"
        }
      ],
      "stateMutability": "view",
      "type": "function"
    },
    {
      "inputs": [
        {
          "internalType": "address[]",
          "name": "_models",
          "type": "address[]"
        },
        {
          "internalType": "uint256[]",
          "name": "_deposits",
          "type": "uint256[]"
        },
        {
          "internalType": "uint256",
          "name": "_startDate",
          "type": "uint256"
        }
      ],
      "name": "createBooking",
      "outputs": [],
      "stateMutability": "payable",
      "type": "function"
    },
    {
      "inputs": [
        {
          "internalType": "contract Lottery",
          "name": "_lottery",
          "type": "address"
        },
        {
          "internalType": "address",
          "name": "_model",
          "type": "address"
        }
      ],
      "name": "enterFree",
      "outputs": [],
      "stateMutability": "nonpayable",
      "type": "function"
    },
    {
      "inputs": [],
      "name": "getBalance",
      "outputs": [
        {
          "internalType": "uint256",
          "name": "balance",
          "type": "uint256"
        }
      ],
      "stateMutability": "view",
      "type": "function"
    },
    {
      "inputs": [
        {
          "internalType": "uint256[]",
          "name": "_deposits",
          "type": "uint256[]"
        }
      ],
      "name": "getSum",
      "outputs": [
        {
          "internalType": "uint256",
          "name": "sum",
          "type": "uint256"
        }
      ],
      "stateMutability": "pure",
      "type": "function"
    },
    {
      "inputs": [
        {
          "internalType": "uint256",
          "name": "_bookingNumber",
          "type": "uint256"
        }
      ],
      "name": "modelCancels",
      "outputs": [],
      "stateMutability": "payable",
      "type": "function"
    },
    {
      "inputs": [
        {
          "internalType": "address payable",
          "name": "_model",
          "type": "address"
        },
        {
          "internalType": "contract Lottery",
          "name": "_lottery",
          "type": "address"
        },
        {
          "internalType": "uint256",
          "name": "_bookingNumber",
          "type": "uint256"
        }
      ],
      "name": "modelCheckIn",
      "outputs": [],
      "stateMutability": "payable",
      "type": "function"
    },
    {
      "inputs": [
        {
          "internalType": "uint256",
          "name": "",
          "type": "uint256"
        }
      ],
      "name": "noShows",
      "outputs": [
        {
          "internalType": "address",
          "name": "",
          "type": "address"
        }
      ],
      "stateMutability": "view",
      "type": "function"
    },
    {
      "inputs": [
        {
          "internalType": "address payable",
          "name": "_model",
          "type": "address"
        },
        {
          "internalType": "contract Lottery",
          "name": "_lottery",
          "type": "address"
        },
        {
          "internalType": "uint256",
          "name": "_bookingNumber",
          "type": "uint256"
        }
      ],
      "name": "payModel",
      "outputs": [],
      "stateMutability": "payable",
      "type": "function"
    },
    {
      "inputs": [
        {
          "internalType": "uint256",
          "name": "_bookingNumber",
          "type": "uint256"
        },
        {
          "internalType": "uint256",
          "name": "_deposit",
          "type": "uint256"
        },
        {
          "internalType": "address",
          "name": "_model",
          "type": "address"
        }
      ],
      "name": "payOwner",
      "outputs": [],
      "stateMutability": "payable",
      "type": "function"
    },
    {
      "inputs": [
        {
          "internalType": "uint256",
          "name": "_bookingNumber",
          "type": "uint256"
        },
        {
          "internalType": "address",
          "name": "_model",
          "type": "address"
        }
      ],
      "name": "reportAsNoShow",
      "outputs": [],
      "stateMutability": "payable",
      "type": "function"
    },
    {
      "stateMutability": "payable",
      "type": "receive"
    }
  ],
  "bytecode": "0x608060405234801561001057600080fd5b506001600055600280546001600160a01b03191633179055611b36806100376000396000f3fe6080604052600436106100ec5760003560e01c80635f733c691161008a578063882d035311610059578063882d0353146102545780638b0ebfbd14610267578063ccb8c1e01461027a578063e73a5f5d1461029a57600080fd5b80635f733c69146101cd5780637dbe00a5146101e057806382228533146101f35780638709aae81461024157600080fd5b806330acda66116100c657806330acda661461014a57806330ae9c051461016a57806330bbfd54146101a75780634a1c9900146101ba57600080fd5b80630a10df7c146100f857806312065fe0146101225780631c6f84de1461013557600080fd5b366100f357005b600080fd5b34801561010457600080fd5b5060015461010f9081565b6040519081526020015b60405180910390f35b34801561012e57600080fd5b504761010f565b610148610143366004611646565b6102ad565b005b34801561015657600080fd5b50610148610165366004611711565b6104a4565b34801561017657600080fd5b5061018a61018536600461174a565b610503565b604080519283526001600160a01b03909116602083015201610119565b6101486101b5366004611763565b610726565b6101486101c836600461174a565b6107d1565b6101486101db36600461179c565b610a9e565b6101486101ee3660046117c1565b610b67565b3480156101ff57600080fd5b5061022961020e36600461174a565b6003602052600090815260409020546001600160a01b031681565b6040516001600160a01b039091168152602001610119565b61014861024f3660046117c1565b610d57565b610148610262366004611802565b610ef6565b6101486102753660046118a8565b611145565b34801561028657600080fd5b5061010f6102953660046118cf565b611208565b6101486102a836600461179c565b611254565b6102b682611208565b34146102dd5760405162461bcd60e51b81526004016102d49061190c565b60405180910390fd5b6102e96107d04261196b565b8110156103385760405162461bcd60e51b815260206004820152601760248201527f43616e6e6f7420626f6f6b20696e20746865207061737400000000000000000060448201526064016102d4565b610346600180546001019055565b60006005600061035560015490565b815260208082019290925260400160002080546001600160a81b0319163361010002178155600581018490558551909250610398916006840191908701906114de565b5060005b8451811015610471576103b58260030180546001019055565b8381815181106103c7576103c7611998565b60200260200101518260010160008784815181106103e7576103e7611998565b60200260200101516001600160a01b03166001600160a01b0316815260200190815260200160002081905550600082600201600087848151811061042d5761042d611998565b6020908102919091018101516001600160a01b03168252810191909152604001600020805460ff191691151591909117905580610469816119ae565b91505061039c565b506001546040517feff0c44eb012c0a3b8af8da61b04c9c7ee828fe9c5746869998c63319a21067c90600090a250505050565b60405163099bfbbf60e41b81526001600160a01b0382811660048301528316906399bfbbf090602401600060405180830381600087803b1580156104e757600080fd5b505af11580156104fb573d6000803e3d6000fd5b505050505050565b60025460009081906001600160a01b031633146105325760405162461bcd60e51b81526004016102d4906119c9565b60008381526005602081905260409091200154610552906213c680611a00565b4210156105b75760405162461bcd60e51b815260206004820152602d60248201527f43616e20636865636b20666f72206465706f736973747320313520646179732060448201526c616674657220626f6f6b696e6760981b60648201526084016102d4565b60005b60008481526005602052604090206006015481101561071f57600084815260056020526040812060068101805460029092019291849081106105fe576105fe611998565b60009182526020808320909101546001600160a01b0316835282019290925260400190205460ff1661070d57600084815260056020526040902060060180548290811061064d5761064d611998565b600091825260208083209091015486835260039091526040909120546001600160a01b0390811691161461070d57600084815260056020526040812060068101805460019092019291849081106106a6576106a6611998565b60009182526020808320909101546001600160a01b031683528281019390935260409182018120548782526005909352206006018054839081106106ec576106ec611998565b6000918252602090912001549093506001600160a01b031691506107219050565b80610717816119ae565b9150506105ba565b505b915091565b6002546001600160a01b031633146107505760405162461bcd60e51b81526004016102d4906119c9565b6002546040516001600160a01b039091169083156108fc029084906000818181858888f1935050505015801561078a573d6000803e3d6000fd5b5060008381526005602052604090206004810180546001019081905560039091015414156107cc576000838152600560205260409020805460ff191660011790555b505050565b806000808281526005602052604090205460ff1660028111156107f6576107f6611982565b146108135760405162461bcd60e51b81526004016102d490611a18565b60008281526005602090815260408083203380855260029091019092529091205483919060ff16156108575760405162461bcd60e51b81526004016102d490611a4f565b610860846113e3565b6108b65760405162461bcd60e51b815260206004820152602160248201527f4f6e6c79204d6f64656c2063616e2063616e63656c206f776e207265717565736044820152601d60fa1b60648201526084016102d4565b6000848152600560209081526040808320805433855260019091019092528083205490516101009092046001600160a01b0316926108fc8215029290818181858888f1935050505015801561090f573d6000803e3d6000fd5b5060005b600085815260056020526040902060060154811015610a5857600085815260056020526040902060060180543391908390811061095257610952611998565b6000918252602090912001546001600160a01b03161415610a46576000858152600560205260409020600601805461098c9060019061196b565b8154811061099c5761099c611998565b60009182526020808320909101548783526005909152604090912060060180546001600160a01b0390921691839081106109d8576109d8611998565b600091825260208083209190910180546001600160a01b0319166001600160a01b039490941693909317909255868152600590915260409020600601805480610a2357610a23611a7b565b600082815260209020810160001990810180546001600160a01b03191690550190555b80610a50816119ae565b915050610913565b506000848152600560205260409020610a736003820161145c565b600381015460048201541415610a97578054600190829060ff191682805b02179055505b5050505050565b6002546001600160a01b03163314610ac85760405162461bcd60e51b81526004016102d4906119c9565b600082815260056020908152604080832080546001600160a01b0386811686526001909201909352818420549151610100909304169281156108fc029290818181858888f19350505050158015610b23573d6000803e3d6000fd5b5060008281526005602052604090206001815460ff166002811115610b4a57610b4a611982565b146107cc576001815460ff166002811115610a9757610a97611982565b806000808281526005602052604090205460ff166002811115610b8c57610b8c611982565b14610ba95760405162461bcd60e51b81526004016102d490611a18565b600082815260056020526040902054829061010090046001600160a01b03163314610be65760405162461bcd60e51b81526004016102d490611a91565b60008381526005602090815260408083206001600160a01b03891684526002019091529020548390869060ff1615610c305760405162461bcd60e51b81526004016102d490611a4f565b60008581526005602090815260408083206001600160a01b03808c16855260019091019092529091205490879081166108fc610c6d8460146114b3565b6040518115909202916000818181858888f19350505050158015610c95573d6000803e3d6000fd5b506002546001600160a01b03166108fc610cba610cb38560146114b3565b85906114c6565b6040518115909202916000818181858888f19350505050158015610ce2573d6000803e3d6000fd5b5060008781526005602090815260408083206001600160a01b038d16845260028101909252909120805460ff19166001179055610d256004820180546001019055565b600381015460048201541415610d4157805460ff191660011781555b610d4b898b6104a4565b50505050505050505050565b806000808281526005602052604090205460ff166002811115610d7c57610d7c611982565b14610d995760405162461bcd60e51b81526004016102d490611a18565b600082815260056020526040902054829061010090046001600160a01b03163314610dd65760405162461bcd60e51b81526004016102d490611a91565b60008381526005602090815260408083206001600160a01b03891684526002019091529020548390869060ff1615610e205760405162461bcd60e51b81526004016102d490611a4f565b60008581526005602081815260408084206001600160a01b038c16855260010190915290912054610e50916114d2565b3414610eac5760405162461bcd60e51b815260206004820152602560248201527f506c6561736520656e737572652074686520636f727265637420666565206973604482015264081cd95b9d60da1b60648201526084016102d4565b6040516001600160a01b038816903480156108fc02916000818181858888f19350505050158015610ee1573d6000803e3d6000fd5b50610eed878787610b67565b50505050505050565b816000808281526005602052604090205460ff166002811115610f1b57610f1b611982565b14610f385760405162461bcd60e51b81526004016102d490611a18565b600083815260056020526040902054839061010090046001600160a01b03163314610f755760405162461bcd60e51b81526004016102d490611a91565b60005b60008581526005602052604090206003015481101561112357600560008681526020019081526020016000206002016000858381518110610fbb57610fbb611998565b6020908102919091018101516001600160a01b031682528101919091526040016000205460ff16151560011415610ff157611111565b83818151811061100357611003611998565b60200260200101516001600160a01b03166108fc61107d6002600560008a8152602001908152602001600020600101600089878151811061104657611046611998565b60200260200101516001600160a01b03166001600160a01b03168152602001908152602001600020546114b390919063ffffffff16565b6040518115909202916000818181858888f193505050501580156110a5573d6000803e3d6000fd5b5060028054600087815260056020526040812087516001600160a01b03909316936108fc936110e793919260010191908a908890811061104657611046611998565b6040518115909202916000818181858888f1935050505015801561110f573d6000803e3d6000fd5b505b8061111b816119ae565b915050610f78565b5060008481526005602052604090208054600290829060ff1916600183610a91565b600083815260056020526040902054839061010090046001600160a01b031633146111825760405162461bcd60e51b81526004016102d490611a91565b8134146111a15760405162461bcd60e51b81526004016102d49061190c565b60008481526005602052604090206001815460ff1660028111156111c7576111c7611982565b14156111d657805460ff191681555b6111e68160030180546001019055565b6001600160a01b03909316600090815260019093016020525060409091205550565b6000805b825181101561124e5782818151811061122757611227611998565b60200260200101518261123a9190611a00565b915080611246816119ae565b91505061120c565b50919050565b600082815260056020526040902054829061010090046001600160a01b031633146112915760405162461bcd60e51b81526004016102d490611a91565b60008381526005602090815260408083206001600160a01b03861684526002019091529020548390839060ff16156112db5760405162461bcd60e51b81526004016102d490611a4f565b600085815260056020819052604090912001546112fb9062015180611a00565b4210156113435760405162461bcd60e51b8152602060048201526016602482015275323420686f75727320616674657220626f6f6b696e6760501b60448201526064016102d4565b600085815260056020819052604090912001546113639062093a80611a00565b4211156113b25760405162461bcd60e51b815260206004820152601760248201527f372064617973206166746572206120626f6f6b696e672000000000000000000060448201526064016102d4565b50505060009182526003602052604090912080546001600160a01b0319166001600160a01b03909216919091179055565b6000805b60008381526005602052604090206006015481101561124e57600083815260056020526040902060060180543391908390811061142657611426611998565b6000918252602090912001546001600160a01b0316141561144a5750600192915050565b80611454816119ae565b9150506113e7565b8054806114ab5760405162461bcd60e51b815260206004820152601b60248201527f436f756e7465723a2064656372656d656e74206f766572666c6f77000000000060448201526064016102d4565b600019019055565b60006114bf8284611abf565b9392505050565b60006114bf828461196b565b60006114bf8284611ae1565b828054828255906000526020600020908101928215611533579160200282015b8281111561153357825182546001600160a01b0319166001600160a01b039091161782556020909201916001909101906114fe565b5061153f929150611543565b5090565b5b8082111561153f5760008155600101611544565b634e487b7160e01b600052604160045260246000fd5b604051601f8201601f1916810167ffffffffffffffff8111828210171561159757611597611558565b604052919050565b600067ffffffffffffffff8211156115b9576115b9611558565b5060051b60200190565b6001600160a01b03811681146115d857600080fd5b50565b600082601f8301126115ec57600080fd5b813560206116016115fc8361159f565b61156e565b82815260059290921b8401810191818101908684111561162057600080fd5b8286015b8481101561163b5780358352918301918301611624565b509695505050505050565b60008060006060848603121561165b57600080fd5b833567ffffffffffffffff8082111561167357600080fd5b818601915086601f83011261168757600080fd5b813560206116976115fc8361159f565b82815260059290921b8401810191818101908a8411156116b657600080fd5b948201945b838610156116dd5785356116ce816115c3565b825294820194908201906116bb565b975050870135925050808211156116f357600080fd5b50611700868287016115db565b925050604084013590509250925092565b6000806040838503121561172457600080fd5b823561172f816115c3565b9150602083013561173f816115c3565b809150509250929050565b60006020828403121561175c57600080fd5b5035919050565b60008060006060848603121561177857600080fd5b83359250602084013591506040840135611791816115c3565b809150509250925092565b600080604083850312156117af57600080fd5b82359150602083013561173f816115c3565b6000806000606084860312156117d657600080fd5b83356117e1816115c3565b925060208401356117f1816115c3565b929592945050506040919091013590565b6000806040838503121561181557600080fd5b8235915060208084013567ffffffffffffffff81111561183457600080fd5b8401601f8101861361184557600080fd5b80356118536115fc8261159f565b81815260059190911b8201830190838101908883111561187257600080fd5b928401925b8284101561189957833561188a816115c3565b82529284019290840190611877565b80955050505050509250929050565b6000806000606084860312156118bd57600080fd5b8335925060208401356117f1816115c3565b6000602082840312156118e157600080fd5b813567ffffffffffffffff8111156118f857600080fd5b611904848285016115db565b949350505050565b60208082526029908201527f506c6561736520656e737572652074686520636f7272656374206465706f73696040820152681d081a5cc81cd95b9d60ba1b606082015260800190565b634e487b7160e01b600052601160045260246000fd5b60008282101561197d5761197d611955565b500390565b634e487b7160e01b600052602160045260246000fd5b634e487b7160e01b600052603260045260246000fd5b60006000198214156119c2576119c2611955565b5060010190565b60208082526017908201527f4f6e6c7920746865206f776e65722063616e2063616c6c000000000000000000604082015260600190565b60008219821115611a1357611a13611955565b500190565b60208082526017908201527f4d75737420626520736174757320696e69746961746564000000000000000000604082015260600190565b602080825260129082015271135bd9195b08185b1c9958591e481c185a5960721b604082015260600190565b634e487b7160e01b600052603160045260246000fd5b60208082526014908201527313db9b1e4818db1a595b9d0818d85b8818d85b1b60621b604082015260600190565b600082611adc57634e487b7160e01b600052601260045260246000fd5b500490565b6000816000190483118215151615611afb57611afb611955565b50029056fea26469706673582212201185c8a2b86e9fa35ba5a8039aa4d16fee1507ae7cb9b10697b64cea5227863364736f6c634300080b0033",
  "linkReferences": {},
  "deployedLinkReferences": {}
}