{
  "_format": "hh-sol-artifact-1",
  "contractName": "PayModel",
  "sourceName": "contracts/PayModel.sol",
  "abi": [
    {
      "inputs": [
        {
          "internalType": "address payable",
          "name": "_to",
          "type": "address"
        }
      ],
      "name": "Transfer",
      "outputs": [],
      "stateMutability": "payable",
      "type": "function"
    }
  ],
  "bytecode": "0x608060405234801561001057600080fd5b50600160005560ce806100246000396000f3fe608060405260043610601c5760003560e01c80632d339b1e146021575b600080fd5b6030602c366004606a565b6032565b005b6040516001600160a01b038216903480156108fc02916000818181858888f193505050501580156066573d6000803e3d6000fd5b5050565b600060208284031215607b57600080fd5b81356001600160a01b0381168114609157600080fd5b939250505056fea26469706673582212209c7fe6827e645d95cc2e9a9421a83e11079a97f9d7619d61d468592755dbbec064736f6c634300080b0033",
  "linkReferences": {},
  "deployedLinkReferences": {}
}