{
  "_format": "hh-sol-artifact-1",
  "contractName": "Lottery",
  "sourceName": "contracts/Lottery.sol",
  "abi": [
    {
      "inputs": [
        {
          "internalType": "address",
          "name": "_bookingFactory",
          "type": "address"
        }
      ],
      "stateMutability": "nonpayable",
      "type": "constructor"
    },
    {
      "inputs": [],
      "name": "enter",
      "outputs": [],
      "stateMutability": "payable",
      "type": "function"
    },
    {
      "inputs": [
        {
          "internalType": "address",
          "name": "_model",
          "type": "address"
        }
      ],
      "name": "enterFree",
      "outputs": [],
      "stateMutability": "payable",
      "type": "function"
    },
    {
      "inputs": [],
      "name": "getBalance",
      "outputs": [
        {
          "internalType": "uint256",
          "name": "",
          "type": "uint256"
        }
      ],
      "stateMutability": "view",
      "type": "function"
    },
    {
      "inputs": [],
      "name": "getPlayers",
      "outputs": [
        {
          "internalType": "address payable[]",
          "name": "",
          "type": "address[]"
        }
      ],
      "stateMutability": "view",
      "type": "function"
    },
    {
      "inputs": [],
      "name": "getRandomNumber",
      "outputs": [
        {
          "internalType": "uint256",
          "name": "",
          "type": "uint256"
        }
      ],
      "stateMutability": "view",
      "type": "function"
    },
    {
      "inputs": [
        {
          "internalType": "uint256",
          "name": "lottery",
          "type": "uint256"
        }
      ],
      "name": "getWinnerByLottery",
      "outputs": [
        {
          "internalType": "address payable",
          "name": "",
          "type": "address"
        }
      ],
      "stateMutability": "view",
      "type": "function"
    },
    {
      "inputs": [
        {
          "internalType": "uint256",
          "name": "",
          "type": "uint256"
        }
      ],
      "name": "lotteryHistory",
      "outputs": [
        {
          "internalType": "address payable",
          "name": "",
          "type": "address"
        }
      ],
      "stateMutability": "view",
      "type": "function"
    },
    {
      "inputs": [],
      "name": "lotteryId",
      "outputs": [
        {
          "internalType": "uint256",
          "name": "",
          "type": "uint256"
        }
      ],
      "stateMutability": "view",
      "type": "function"
    },
    {
      "inputs": [],
      "name": "owner",
      "outputs": [
        {
          "internalType": "address",
          "name": "",
          "type": "address"
        }
      ],
      "stateMutability": "view",
      "type": "function"
    },
    {
      "inputs": [],
      "name": "pickWinner",
      "outputs": [],
      "stateMutability": "nonpayable",
      "type": "function"
    },
    {
      "inputs": [
        {
          "internalType": "uint256",
          "name": "",
          "type": "uint256"
        }
      ],
      "name": "players",
      "outputs": [
        {
          "internalType": "address payable",
          "name": "",
          "type": "address"
        }
      ],
      "stateMutability": "view",
      "type": "function"
    },
    {
      "stateMutability": "payable",
      "type": "receive"
    }
  ],
  "bytecode": "0x608060405234801561001057600080fd5b5060405161073c38038061073c83398101604081905261002f91610065565b60008054336001600160a01b031991821617909155600180549091166001600160a01b0392909216919091178155600355610095565b60006020828403121561007757600080fd5b81516001600160a01b038116811461008e57600080fd5b9392505050565b610698806100a46000396000f3fe6080604052600436106100a05760003560e01c80638da5cb5b116100645780638da5cb5b1461018b57806399bfbbf0146101ab578063dbdff2c1146101be578063e580f47b146101d3578063e97dcb62146101e9578063f71d96cb146101f157600080fd5b806312065fe0146100ac578063281d098d146100ce5780635d495aea1461011c5780636d6fe230146101335780638b5b9ccc1461016957600080fd5b366100a757005b600080fd5b3480156100b857600080fd5b50475b6040519081526020015b60405180910390f35b3480156100da57600080fd5b506101046100e936600461056b565b6000908152600460205260409020546001600160a01b031690565b6040516001600160a01b0390911681526020016100c5565b34801561012857600080fd5b50610131610211565b005b34801561013f57600080fd5b5061010461014e36600461056b565b6004602052600090815260409020546001600160a01b031681565b34801561017557600080fd5b5061017e610316565b6040516100c59190610584565b34801561019757600080fd5b50600054610104906001600160a01b031681565b6101316101b93660046105d1565b610378565b3480156101ca57600080fd5b506100bb6103e1565b3480156101df57600080fd5b506100bb60035481565b610131610429565b3480156101fd57600080fd5b5061010461020c36600461056b565b6104c7565b6000546001600160a01b0316331461022857600080fd5b6002546000906102366103e1565b6102409190610601565b90506002818154811061025557610255610623565b60009182526020822001546040516001600160a01b03909116914780156108fc02929091818181858888f19350505050158015610296573d6000803e3d6000fd5b50600281815481106102aa576102aa610623565b600091825260208083209091015460038054845260049092526040832080546001600160a01b0319166001600160a01b039092169190911790558054916102f083610639565b90915550506040805160008152602081019182905251610312916002916104f1565b5050565b6060600280548060200260200160405190810160405280929190818152602001828054801561036e57602002820191906000526020600020905b81546001600160a01b03168152600190910190602001808311610350575b5050505050905090565b6001546001600160a01b0316331461038f57600080fd5b600280546001810182556000919091527f405787fa12a823e0f2b7631cc41b3ba8828b3321ca811111fa75cd3aa3bb5ace0180546001600160a01b0319166001600160a01b0392909216919091179055565b6000805460405160609190911b6bffffffffffffffffffffffff191660208201524260348201526054016040516020818303038152906040528051906020012060001c905090565b661168862766400034116104835760405162461bcd60e51b815260206004820152601f60248201527f706c656173652073656e642074686520726571756972656420616d6f756e7400604482015260640160405180910390fd5b600280546001810182556000919091527f405787fa12a823e0f2b7631cc41b3ba8828b3321ca811111fa75cd3aa3bb5ace0180546001600160a01b03191633179055565b600281815481106104d757600080fd5b6000918252602090912001546001600160a01b0316905081565b828054828255906000526020600020908101928215610546579160200282015b8281111561054657825182546001600160a01b0319166001600160a01b03909116178255602090920191600190910190610511565b50610552929150610556565b5090565b5b808211156105525760008155600101610557565b60006020828403121561057d57600080fd5b5035919050565b6020808252825182820181905260009190848201906040850190845b818110156105c55783516001600160a01b0316835292840192918401916001016105a0565b50909695505050505050565b6000602082840312156105e357600080fd5b81356001600160a01b03811681146105fa57600080fd5b9392505050565b60008261061e57634e487b7160e01b600052601260045260246000fd5b500690565b634e487b7160e01b600052603260045260246000fd5b600060001982141561065b57634e487b7160e01b600052601160045260246000fd5b506001019056fea2646970667358221220a66d5d0ceb0a675dfc423d79a80327d5d69df00a77b55f60caccda5aa818968264736f6c634300080b0033",
  "linkReferences": {},
  "deployedLinkReferences": {}
}